:0A0000000C9469000C9400000C94AD
:10000A0000000C9400000C9400000C9400000C9466
:10001A0000000C9400000C9400000C9400000C9456
:10002A0000000C9400000C9400000C9400000C9446
:10003A0000000C9400000C9400000C9400000C9436
:10004A0000000C9400000C9400001027E8036400E0
:10005A000A0001000010000110000100256400538D
:10006A0075687520416E6461203A0057617370614A
:10007A00646120436F766964313900416E6461209E
:10008A00536568617400536564616E672053616BE0
:10009A006974000001002D4E414E00494E46000091
:1000AA0080C00C006002690010006C0275000B0031
:1000BA007C0285000D0087029000010094029E00D8
:1000CA0002009802AA000000F894EE27ECBBF1E0C7
:1000DA00FBBFEBBFE5BF8DE0A2E0BB27ED938A959E
:1000EA00E9F780E098E0A0E6ED930197E9F7ECEAFA
:1000FA00F0E085919591009761F0A591B5910590F1
:10010A001590BF01F00105900D920197E1F7FB01EF
:10011A00F0CFEFE5EDBFE8E0EEBFC0E6D2E00C9429
:10012A00A400AA93E881E7B988E28A95F1F7369A9A
:10013A00349BFECF349AE4B1F5B10C943003649742
:10014A00E0E0E7B9E4E8E6B9E0E0E0BFA0E10E9458
:10015A000403A0E0E6DF662777270E94FA03DF019F
:10016A00CB01E3E3F3E363E070E40E9428040E9416
:10017A00C1031E2F0E94D202FE01FA93EA93E6E619
:10018A00F0E0FA93EA93E12FFF27662777270E9488
:10019A008A0484E00E9471022896E0E0EA93A0E0D3
:1001AA000E94C502A0E6B2E00E94F302ECE0EA93E4
:1001BA00A0E00E94C502DE010E94F302163228F076
:1001CA000E944B03ACE6B2E00BC0143228F00E9446
:1001DA004B03ACE7B2E004C00E944B03A7E8B2E0CD
:1001EA000E94F302A4E6B0E00E948A03B2CFFFCFD6
:1001FA00BA93AA931A930A93AA81BB8112960E9470
:10020A008204309759F1AA81BB8114960E94820414
:10021A008F01309761F00230E0E01E0798F0F80194
:10022A0031978F01AA81BB811496ED93FC93AA8121
:10023A00BB811296ED91FD913196FE93EE93319723
:10024A00AC81A083AA81BB810E948204FF232AF089
:10025A00ED91FD913196FE93EE9306C0AA81BB8182
:10026A00EFEFFFEFED93FC9319810881259608952E
:10027A00BA93AA9326970E948F0410E0AC85BD8595
:10028A00E0E0F0E0ED93FC93EA89FB893196EA8B92
:10029A00FB8B3197E4912E2FE03009F415C1E12F41
:1002AA00E03039F4253211F411E002C00E94500303
:1002BA000AC1E130A9F4253219F40E94500302C19F
:1002CA0012E040E000E02D3211F401E0FCC02B32D4
:1002DA0011F44BE2F8C0203211F440E2F4C002C03B
:1002EA00E23039F450E013E0203311F40068EBC037
:1002FA0003C0E33009F0E7C0203310F02A3308F0D6
:10030A0007C0AAE05A9F502DE22FE0535E0FDBC0D0
:10031A00E22FE33649F40E945703E889F989A48158
:10032A00AA930E945D03CEC0E33741F40E945703AB
:10033A000E9463030E9432031E2F0AC0E03761F451
:10034A000E9457030E9463030E943E031E2F086007
:10035A0002600F7730E034C0E43611F0E93611F468
:10036A00046002C0E53731F4E4E5F0E0EE83FF8390
:10037A0015E00CC0E83511F4086003C0E83709F04D
:10038A00A1C0EEE5F0E0EE83FF8314E002FF14C0A3
:10039A000E9457030E946D03AB85AA233AF4EA85AB
:1003AA00FB850E947104EA87FB874DE2403011F019
:1003BA001F5F01C00B7F04C00E9457030E946D0398
:1003CA0000FD11C0151778F407FF08C002FF04C02A
:1003DA000B7F242F115001C020E301C020E20E94AC
:1003EA0050035150EFCF312F01FF17C03030A1F029
:1003FA0003FF06C0EE81FF812591EE83FF8305C0CE
:10040A00AE81BF812D91AE83BF830E9450035030CD
:10041A0009F051503150EACF4BC020E3EE81FF8101
:10042A000E948604E887F987EE81FF813296EE837F
:10043A00FF83E885F985AA85BB85AE17BF0750F00B
:10044A002F5FA885B985EA85FB85EA1BFB0BEA873E
:10045A00FB87EFCF2A3328F003FF02C0295F01C0D0
:10046A00295D04FD1AC0213320F4A885B9851197A6
:10047A0009F409C0531710F000FF01C013C020E2AD
:10048A0007FF0BC020E3006102FF07C00B7F4A93FE
:10049A000E945D03503009F051500E9450035030C1
:1004AA0009F051503150A885B985129708F0B5CF97
:1004BA0000FF08C0503031F05150E0E2EA930E9448
:1004CA005D03F8CF10E0E0CEAC85BD850E948204C2
:1004DA000E94960464960895FF92F82E26970E9429
:1004EA0091040E947503309719F4EFEFFFEF23C0D0
:1004FA00DE0116960E946D048D010E947503EE833B
:10050A00FF83E0E0E887E987DE011A960E946D041E
:10051A000E948204FA93EA931A930A93EDEFF0E0A9
:10052A00FA93EA93DE011A96A3DE9F01AE81BF8198
:10053A00E0E0EC93F9010E9498042A96FF9008954E
:10054A00AA93E5B3EF70AE2FE881E07FEA2BE5BB13
:10055A0084E18A95F1F7AA9A84E18A95F1F7AA9833
:10056A0084E18A95F1F777C0AA93A881E9DFE88147
:10057A00E295E883A881E4DF88EC8A95F1F76BC0FD
:10058A00AA93E881F0E0E856FD4FE081A981AE0F19
:10059A00EBDF5980488022960895A2E00E947C03EE
:1005AA00ACE0E2DFA1E00E947C03E0E04E2E5E2E8A
:1005BA000895AA93A881AA3011F0571448F0E0E0F0
:1005CA00EA934394A42DDCDFA881AA3009F443C03E
:1005DA005394A89AA881C8DFA8983DC0BA93AA9351
:1005EA001A93A981BA81ED91A983BA831E2FE030AB
:1005FA0019F0A12FDEDFF5CF188123960895AA936B
:10060A00E4B3E06FE4BBA29AA09AA19AAA98A89828
:10061A00A9987880E881E058E0939A02E881E0544A
:10062A00E0939B02A4E1B0E00E948A030E94820345
:10063A000E9482030E948203A0E282DF8CE291E0A0
:10064A000197F1F7A8E290DFA4E08EDFA5E88CDF3E
:10065A00A6E08ADFA2DF21960895BA93AA93A99108
:10066A00B991EE27FF276D91662311F03196FBCFE2
:10067A000895BA93AA93AA27BB27E991F9910590FD
:10068A00002011F01196FBCFFD010895E0E0EA93F6
:10069A00A2E00C94C5022A93AD85BE85EF85F88940
:1006AA0009950895E889F9893497E88BF98B0895B3
:1006BA00AD85BE85EF85F88909950895A889B98918
:1006CA0014960E948204EE83FF83AE81BF8108954F
:1006DA00A889B98914960E948204EA87FB8708953B
:1006EA00DE011C960E946D040E94820408950E94F5
:1006FA00B902A3E0B0E00C948A03A0E30E94A50229
:10070A008CE291E00197F1F70895109639F0A895D7
:10071A0088EB9BE00197F1F71197C9F708955523E4
:10072A0042F4503811F4E0FF04C03196691F791F72
:10073A006BF050E8572711F45F9373C05F3F31F0B5
:10074A00660F000C57956795752F08955F930020E3
:10075A000AF073C06CC050E8192E1522880F991F31
:10076A009527550F879550E8072E0522660F771FA4
:10077A007527550F67950895689401C0E8945F93AB
:10078A00F2DF703818F07F3F08F44BC056E1571B70
:10079A00AAF4519558300EF4593030F0EFEFFFEFCC
:1007AA006FEF7FE777F91AC077275523B9F0EE0F75
:1007BA00FF1F661F771F5A95D1F710C07727583049
:1007CA0028F0EF2FF62F672F5850F9CF552331F025
:1007DA0076956795F795E7955A95D1F700200AF42B
:1007EA007FD05F910895689401C0E8943097604083
:1007FA007040B1F0002426F0772312F4009470D0F0
:10080A00172E7EE1112032F07A95EE0FFF1F661F38
:10081A00111CF9CFEF2FF62F612D5F938ADF5F91BD
:10082A000895EE27FF27662777275F910895EFEF50
:10083A00FFEF6FE77FEF5F910895EFEFFFEF6FE74D
:10084A007FE75F9108955F9386DF703821F4112066
:10085A000AF4EDCFF2CF903809F4E3CF01240894DB
:10086A00970B1BF4D4F30020F3CF792F1F932F9308
:10087A003F934F93112411272227332744275527C3
:10088A0090E2AE17BF078607410730F0AE1BBF0BD9
:10089A00860B410B089401C08894551F221F331FF1
:1008AA00111CAA1FBB1F881F441F9A9551F7F901F3
:1008BA00612D4F913F912F911F91662332F0550F71
:1008CA00EE1FFF1F661F7A9543F229DF5F91089595
:1008DA000024AF0DB01D0895F195E195F0400895FB
:1008EA00F09560957095E195FF4F6F4F7F4F089592
:1008FA006F2F660F660B762F0895ED91FC91119775
:10090A0008950590F491E02D08957A936A93FA93E5
:10091A00EA9308955A934A933A932A931A930A9315
:10092A0008955D814C813B812A811981088108954E
:00000001FF
